:040000005AEF00F0C3
:10000800FACF19F0FBCF1AF0E9CF1BF0A7EF01F0F8
:10001800D8CF08F0E8CF09F0E0CF0AF0FACF0BF01C
:10002800FBCF0CF0E9CF0DF0EACF0EF0E1CF0FF0E7
:10003800E2CF10F0D9CF11F0DACF12F0F3CF13F0EE
:10004800F4CF14F0F6CF15F0F7CF16F0F8CF17F07D
:10005800F5CF18F09EA207D0EDEC00F0A6EC00F06A
:100068005CEC00F09E9218C0F5FF17C0F8FF16C0B0
:10007800F7FF15C0F6FF14C0F4FF13C0F3FF12C05A
:10008800DAFF11C0D9FF10C0E2FF0FC0E1FF0EC0B8
:10009800EAFF0DC0E9FF0CC0FBFF0BC0FAFF0AC066
:1000A800E0FF09C0E8FF08C0D8FF100035EF02F0F4
:1000B8002F50292630502A22AA0E2C6EAA0E2B6EFB
:1000C800FF0E016E7F0E026E29C003F02AC004F0F5
:1000D8002B5003262C500422D890033604360001F6
:1000E800600E0324D96E0001000E0420DA6EDECF04
:1000F80005F0DDCF06F00150052602500622060E57
:10010800076E063406320532072EFBD705C02DF0E0
:1001180006C02EF02DC001F02EC002F002340232CB
:10012800013202340232013201500F01166F2DC024
:1001380001F0013A0F0115510118CF0B01180F01F9
:10014800156F12002F50292630502A22550E2C6E7A
:10015800550E2B6EFF0E016E7F0E026E29C003F046
:100168002AC004F02B5003262C500422D8900336C2
:1001780004360001600E0324D96E0001000E04202D
:10018800DA6EDECF05F0DDCF06F00150052602500D
:100198000622060E076E063406320532072EFBD7F6
:1001A80005C02DF006C02EF02DC001F02EC002F0C3
:1001B8000234023201320234023201320150B56E89
:1001C8002DC001F0013AB4500118CF0B0118B46EDC
:1001D80012002F50292630502A22000E2C6E000EB5
:1001E8002B6EFF0E016E7F0E026E29C003F02AC02F
:1001F80004F02B5003262C500422D89003360436E2
:100208000001600E0324D96E0001000E0420DA6E8E
:10021800DECF05F0DDCF06F001500526025006229C
:10022800060E076E063406320532072EFBD705C0C8
:100238002DF006C02EF02DC001F02EC002F00234C1
:10024800023201320234023201320150BB6E2DC03B
:1002580001F0013ABA500118CF0B0118BA6E12001A
:1002680000008C0CF9182825FB30563C1C473351EC
:10027800825AF1626D6AE27041767C7A897D617F8B
:10028800FF7F617F897D7C7A4176E2706D6AF162D9
:10029800825A33511C47563CFB302825F9188C0CE0
:1002A800000074F307E7D8DA05CFAAC3E4B8CDAEE7
:1002B8007EA50F9D93951E8FBF89848577829F8029
:1002C80001809F8077828485BF891E8F93950F9DBB
:1002D8007EA5CDAEE4B8AAC305CFD8DA07E774F394
:1002E800000E2A6E000E296E000E306EC40E2F6EA0
:1002F800550EA76EAA0EA76E0E01BF910E0E0E0127
:10030800CA6F120E0E01C96F160E0E01C86F0F0EBE
:100318000E01C76F130E0E01C66F170E0E01C56FC3
:10032800550EA76EAA0EA76E0E01BF81F28EF28C33
:10033800F28AF1844EEC02F01BEC02F001EC02F0C0
:10034800DAEC01F01200EACF1CF0E1CF1DF0E2CFA9
:100358001EF0D9CF1FF0DACF20F0F3CF21F0F4CF81
:1003680022F0F6CF23F0F7CF24F0F8CF25F0F5CF21
:1003780026F026C0F5FF25C0F8FF24C0F7FF23C0EC
:10038800F6FF22C0F4FF21C0F3FF20C0DAFF1FC030
:10039800D9FF1EC0E2FF1DC0E1FF1CC0EAFF1BC061
:1003A800E9FF1AC0FBFF19C0FAFF1100000E0F0188
:1003B800166FCF0E0F0115170F0115513F0B80094E
:1003C8000F01156F0F011551F00B0C090F01156F77
:1003D8000F0152910F0152930F0152950F0118917D
:1003E8000F0118930F0118850F0118970F0118991D
:1003F8000F01189B0F01189D1200000EB56ECF0E4D
:10040800B416B4503F0B8009B46EB450F00B0C090D
:10041800B46E0F0152970F0152990F01529BB7907A
:10042800B792B784B796B798B79AB79C1200000EE0
:10043800BB6ECF0EBA16BA503F0B8009BA6EBA50CF
:10044800F00B0C09BA6E0F0152910F0152930F0174
:100458005295BD90BD92BD84BD96BD98BD9ABD9C78
:10046800120000EE27F0080EEE6AE806FDE1680EBD
:10047800F66E020EF76E000EF86E00EE60F010EEEB
:1004880080F00900F5CFEEFFE550E150FAE10001F8
:1004980061EF02F0CA96CA98CA9ACA9CCA50FC0B65
:1004A8000209CA6ECA84180ECB6E1200D39ED38876
:1004B800D38AD38CFC0ED31612005AEC02F066ECE9
:0A04C80002F0FFD774EC01F01200FF
:020000040001F9
:08FFF800BFF7F8FFFFFBFFFB60
:00000001FF
