:0400000051EF00F0CC
:10000800FACF12F0FBCF13F0E9CF14F088EF01F02C
:10001800D8CF01F0E8CF02F0E0CF03F0FACF04F038
:10002800FBCF05F0E9CF06F0EACF07F0E1CF08F003
:10003800E2CF09F0D9CF0AF0DACF0BF0F3CF0CF00A
:10004800F4CF0DF0F6CF0EF0F7CF0FF0F8CF10F099
:10005800F5CF11F011C0F5FF10C0F8FF0FC0F7FF82
:100068000EC0F6FF0DC0F4FF0CC0F3FF0BC0DAFFA3
:100078000AC0D9FF09C0E2FF08C0E1FF07C0EAFFD4
:1000880006C0E9FF05C0FBFF04C0FAFF03C0E0FF9C
:1000980002C0E8FF01C0D8FF100013EF02F026C02D
:1000A80020F027C021F02C5020262D5021223F0E71
:1000B8002014266E276A600E206E000E216ED890DE
:1000C8002634D96E2734DA6E2050D9262150DA2208
:1000D800DECF22F0DDCF23F0FF0E22242A6E7F0E22
:1000E80023202B6E2AC020F02BC021F0060E226E92
:1000F800D89021322032222EFBD720C02AF021C0EE
:100108002BF02AC020F02BC021F0D89021322032C9
:10011800D890213220322050BB6E2AC020F0203ADD
:10012800BA502018CF0B2018BA6E120000008C0CA1
:10013800F9182825FB30563C1C473351825AF16286
:100148006D6AE27041767C7A897D617FFF7F617F8D
:10015800897D7C7A4176E2706D6AF162825A335108
:100168001C47563CFB302825F9188C0C000074F30A
:1001780007E7D8DA05CFAAC3E4B8CDAE7EA50F9DB0
:1001880093951E8FBF89848577829F8001809F8089
:1001980077828485BF891E8F93950F9D7EA5CDAEEE
:1001A800E4B8AAC305CFD8DA07E774F326C020F06D
:1001B80027C021F02C5020262D502122FE0E20266B
:1001C800000E21223F0E2014266E276A600E206E34
:1001D800000E216ED8902634D96E2734DA6E20505E
:1001E800D9262150DA22DECF22F0DDCF23F0FF0E10
:1001F80022242A6E7F0E23202B6E2AC020F02BC0CB
:1002080021F0D89021322032D8902132203220504B
:100218000F01166F2AC020F0203A0F01155120183F
:10022800CF0B20180F01156F120026C020F027C031
:1002380021F02C5020262D5021227F0E2026000E42
:1002480021223F0E2014266E276A600E206E000EB3
:10025800216ED8902634D96E2734DA6E2050D926EC
:100268002150DA22DECF22F0DDCF23F0FF0E222448
:100278002A6E7F0E23202B6E2AC020F02BC021F07F
:10028800D89021322032D890213220322050B56EB9
:100298002AC020F0203AB4502018CF0B2018B46E92
:1002A8001200000E276E000E266E000E2D6E040E34
:1002B8002C6E000E936E550EA76EAA0EA76E0E0139
:1002C800BF910E0E0E01CA6F120E0E01C96F160EE7
:1002D8000E01C86F0F0E0E01C76F130E0E01C66F09
:1002E800170E0E01C56F550EA76EAA0EA76E0E014A
:1002F800BF81F28EF28C3AEC02F0F9EC01F0DFECFF
:1003080001F0BBEC01F01200EACF15F0E1CF16F0D6
:10031800E2CF17F0D9CF18F0DACF19F0F3CF1AF0EF
:10032800F4CF1BF0F6CF1CF0F7CF1DF0F8CF1EF07E
:10033800F5CF1FF01FC0F5FF1EC0F8FF1DC0F7FF67
:100348001CC0F6FF1BC0F4FF1AC0F3FF19C0DAFF88
:1003580018C0D9FF17C0E2FF16C0E1FF15C0EAFFB9
:1003680014C0E9FF13C0FBFF12C0FAFF1100000E12
:100378000F01166FCF0E0F0115170F0115513F0B07
:1003880080090F01156F0F011551F00B0C090F01B2
:10039800156F3F0E0F0152170F0118910F01189397
:1003A8000F0118850F0118970F0118990F01189B55
:1003B8000F01189D1200000EB56ECF0EB416B45082
:1003C8003F0B8009B46EB450F00B0C09B46E0F01EA
:1003D80052970F0152990F01529BB790B792B78469
:1003E800B796B798B79AB79C1200000EBB6ECF0E9F
:1003F800BA16BA503F0B8009BA6EBA50F00B0C0906
:10040800BA6E0F0152910F0152930F015295BD9090
:10041800BD92BD84BD96BD98BD9ABD9C120000EEEC
:1004280024F0080EEE6AE806FDE1340EF66E010EC1
:10043800F76E000EF86E00EE60F010EE80F0090026
:10044800F5CFEEFFE550E150FAE100012CEF02F0A4
:1004580046EC02F04DEC02F09EA2FED753EC00F001
:1004680019EC01F0DAEC00F09E92F6D7CA96CA9819
:10047800CA9ACA9CCA50FC0B0209CA6ECA84180ED2
:10048800CB6E1200D39ED388D38AD38CFC0ED3169E
:08049800120055EC01F0120006
:020000040001F9
:08FFF800BFF7F8FFFFFBFFFB60
:00000001FF
